:1000000014C0E1C12DC02CC04CC075C029C028C08F
:1000100027C026C025C059C123C022C021C020C08E
:100020001FC01EC01DC07BC1A4C111241FBECFE5CF
:10003000D1E0DEBFCDBF10E0A0E6B0E0ECEBF4E035
:1000400002C005900D92A038B107D9F720E0A0E8D2
:10005000B0E001C01D92A339B207E1F7D9D12CC29B
:10006000CFCF9C016AE070E000D2FC01EA58FF4F5C
:10007000DB01A459BF4F1216130694F088B388BB56
:1000800098B38081892B88BB89B7806889BF98B372
:100090008C91892B88BB88B388BB21503109EBCF69
:1000A00008951F920F920FB60F9211242F933F9332
:1000B0004F935F936F937F938F939F93AF93BF9370
:1000C000EF93FF93809183008093880080918E004E
:1000D00090E0C7DFFF91EF91BF91AF919F918F911A
:1000E0007F916F915F914F913F912F910F900FBE34
:1000F0000F901F9018951F920F920FB60F92112418
:100100000F900FBE0F901F901895ABDF8091880065
:100110008436C1F128F4823661F08336B1F0089557
:10012000863609F467C008F449C0873609F481C0EF
:10013000089519BE10928600959894989398D9982E
:1001400080918C0080938E00089580918C00809324
:100150008E0090E0992786959795882795BD84BD58
:1001600080E489BF84E6809383001092870081E059
:1001700080938B001092890010928D0080938600EE
:10018000959A53C08091840080938E0090E09927C7
:1001900086959795882795BD84BD85E680938300D5
:1001A0001092870081E080938B001092890010925A
:1001B0008D0080938600949A959837C08091850031
:1001C00080938E0090E0992786959795882795BD16
:1001D00084BD86E6809383001092870010928B0086
:1001E00081E08093890010928D0080938600939A1D
:1001F00094981BC082E6809383001092870010922F
:100200008B001092890081E080938D00809386009E
:1002100080918A0080938E0090E09927869597952B
:10022000882795BD84BD9398D99A80918E0090E0DF
:1002300018CF959894989398D99880918F0082368A
:10024000C9F018F4813631F00895833619F18436F7
:1002500089F1089580918700882349F0813051F415
:1002600082E08093860083E68093800003C082E66C
:1002700080938F0080918B00882349F0813051F466
:1002800082E08093860084E68093800003C083E64A
:1002900080938F0080918900882349F0813051F448
:1002A00082E08093860085E68093800003C084E628
:1002B00080938F0080918D00813031F482E08093B3
:1002C000860086E68093800008951F920F920FB6F5
:1002D0000F9211248F9380916B0080938C008091FA
:1002E0006A008093840080916900809385008091EA
:1002F000680080938A008BB7877F8BBF8BB78F7E18
:100300008BBF8BB78F7D8BBF8BB780648BBFB89A49
:10031000C09A8F910F900FBE0F901F9018951F924B
:100320000F920FB60F9211248F93809167008093E4
:100330008C0080916600809384008091650080939A
:1003400085008091640080938A008BB78F7D8BBF7E
:100350008BB78F7E8BBF8BB7877F8BBF8BB780644C
:100360008BBFD09AD89A8F910F900FBE0F901F908D
:1003700018951F920F920FB60F9211248F938091B0
:10038000630080938C008091620080938400809150
:100390006100809385008091600080938A008BB714
:1003A0008F7D8BBF8BB7877F8BBF8BB78F7E8BBFCC
:1003B0008BB780648BBF889A909A8F910F900FBEF5
:1003C0000F901F9018951F920F920FB60F92112445
:1003D0008F9380918600813089F060F0823091F4B3
:1003E000809180008093880081E08093860080E483
:1003F00089BF08C083E68093880004C087E68093A5
:10040000880019BE8F910F900FBE0F901F90189506
:1004100088E781BB12BA86EF87BB86E088BB82E0A3
:100420008ABB1BBA81E085BF98E39BBF80BD84B9BE
:1004300085B98FB588618FBD8EB585608EBD809181
:100440008E0090E0992786959795882795BD84BD65
:10045000789482E6809388001092860081E68093EB
:100460008F0010928E0051DEFECF97FB072E16F400
:10047000009406D077FD08D00BD007FC05D03EF4E1
:10048000909581959F4F0895709561957F4F089540
:10049000AA1BBB1B51E107C0AA1FBB1FA617B707AA
:1004A00010F0A61BB70B881F991F5A95A9F78095C6
:0C04B0009095BC01CD010895F894FFCF99
:1004BC0009050A0306040702030203010616263681
:1004CC004656667686960616263646566676869680
:00000001FF
