:1000000014C0A5C12DC02CC054C02AC029C028C00E
:1000100027C026C025C01DC123C022C021C020C0CA
:100020001FC01EC01DC03FC168C111241FBECFE547
:10003000D1E0DEBFCDBF10E0A0E6B0E0ECECF3E035
:1000400002C005900D92AC36B107D9F720E0ACE6BE
:10005000B0E001C01D92A138B207E1F78FD1B4C161
:10006000CFCF8093740090E480917400811120C000
:1000700010927A001092760088B388BB28B38091E2
:100080007A00822B88BB99BF88B388BB19BE82B324
:1000900082BB28B380917600822B88BB99BF82B344
:1000A00082BB19BE80917400815080937400DCCFB4
:1000B00008951F920F920FB60F9211242F933F9322
:1000C0004F935F936F937F938F939F93AF93BF9360
:1000D000EF93FF9380917D0090E0C3DFFF91EF915C
:1000E000BF91AF919F918F917F916F915F914F9150
:1000F0003F912F910F900FBE0F901F9018958091F8
:100100007500843659F128F4823659F0833681F02F
:100110000895863609F44CC0B0F1873609F45DC005
:10012000089510927200959894989398D99808958C
:1001300080917B0080937D001092730081E080931A
:1001400079001092770010927C0080937200959A4B
:1001500080917D0090E085DF84E678C080916F001B
:1001600080937D0085E680936E001092730081E09D
:10017000809379001092770010927C008093720037
:10018000949A959808958091710080937D0086E6F9
:1001900080936E00109273001092790081E080933A
:1001A000770010927C0080937200939A949808953F
:1001B0008091710080937D0082E680936E001092A2
:1001C0007300109279001092770081E080937C0098
:1001D00080937200D99A9398089580917E00823618
:1001E000B1F018F4813631F008958336E9F08436A1
:1001F00041F1089580917300882331F0813039F402
:1002000083E68093750003C082E680937E00809130
:100210007900882331F0813039F484E680937500C9
:1002200003C083E680937E0080917700882331F0BD
:10023000813039F485E68093750003C084E68093AD
:100240007E0080917C00813019F486E680937500F1
:1002500008951F920F920FB60F9211248F938091E1
:100260006B0080937B0080916A0080936F00809187
:1002700069008093710080916800809378008BB74B
:10028000877F8BBF8BB78F7E8BBF8BB78F7D8BBFED
:100290008BB780648BBFB89AC09A8F910F900FBEB6
:1002A0000F901F9018951F920F920FB60F92112466
:1002B0008F938091670080937B008091660080938C
:1002C0006F0080916500809371008091640080933D
:1002D00078008BB78F7D8BBF8BB78F7E8BBF8BB733
:1002E000877F8BBF8BB780648BBFD09AD89A8F9152
:1002F0000F900FBE0F901F9018951F920F920FB680
:100300000F9211248F938091630080937B008091E2
:10031000620080936F0080916100809371008091F2
:100320006000809378008BB78F7D8BBF8BB7877F02
:100330008BBF8BB78F7E8BBF8BB780648BBF889A48
:10034000909A8F910F900FBE0F901F9018951F924B
:100350000F920FB60F9211248F9380917200882311
:1003600021F0813029F487E601C083E6809375008F
:100370008F910F900FBE0F901F90189588E781BB4B
:1003800080E482BB82EF87BB82E088BB8ABB1BBA5A
:1003900081E085BF98E39BBF80BD84B985B98FB5E7
:1003A00088618FBD8EB585608EBD80E395E795BD74
:1003B00084BD789482E6809375001092720081E685
:0C03C00080937E009CDEFECFF894FFCFFF
:0C03CC0009050A030604070203020301EE
:00000001FF
